{
  "contractName": "BitXGoldSwap",
  "address": "0xcC7F6518D07b5dFeb931837d4ac7879C9160AC1a",
  "abi": [
    {
      "anonymous": false,
      "inputs": [
        {
          "indexed": false,
          "internalType": "uint256",
          "name": "amount",
          "type": "uint256"
        }
      ],
      "name": "AddMoreRewardToken",
      "type": "event"
    },
    {
      "anonymous": false,
      "inputs": [
        {
          "indexed": false,
          "internalType": "contract IERC20",
          "name": "token",
          "type": "address"
        },
        {
          "indexed": false,
          "internalType": "uint256",
          "name": "amount",
          "type": "uint256"
        }
      ],
      "name": "Claim",
      "type": "event"
    },
    {
      "anonymous": false,
      "inputs": [
        {
          "indexed": false,
          "internalType": "uint256",
          "name": "amount",
          "type": "uint256"
        }
      ],
      "name": "DepositBitx",
      "type": "event"
    },
    {
      "anonymous": false,
      "inputs": [
        {
          "indexed": false,
          "internalType": "uint8",
          "name": "version",
          "type": "uint8"
        }
      ],
      "name": "Initialized",
      "type": "event"
    },
    {
      "anonymous": false,
      "inputs": [
        {
          "indexed": true,
          "internalType": "address",
          "name": "previousOwner",
          "type": "address"
        },
        {
          "indexed": true,
          "internalType": "address",
          "name": "newOwner",
          "type": "address"
        }
      ],
      "name": "OwnershipTransferred",
      "type": "event"
    },
    {
      "anonymous": false,
      "inputs": [
        {
          "indexed": true,
          "internalType": "bytes32",
          "name": "role",
          "type": "bytes32"
        },
        {
          "indexed": true,
          "internalType": "bytes32",
          "name": "previousAdminRole",
          "type": "bytes32"
        },
        {
          "indexed": true,
          "internalType": "bytes32",
          "name": "newAdminRole",
          "type": "bytes32"
        }
      ],
      "name": "RoleAdminChanged",
      "type": "event"
    },
    {
      "anonymous": false,
      "inputs": [
        {
          "indexed": true,
          "internalType": "bytes32",
          "name": "role",
          "type": "bytes32"
        },
        {
          "indexed": true,
          "internalType": "address",
          "name": "account",
          "type": "address"
        },
        {
          "indexed": true,
          "internalType": "address",
          "name": "sender",
          "type": "address"
        }
      ],
      "name": "RoleGranted",
      "type": "event"
    },
    {
      "anonymous": false,
      "inputs": [
        {
          "indexed": true,
          "internalType": "bytes32",
          "name": "role",
          "type": "bytes32"
        },
        {
          "indexed": true,
          "internalType": "address",
          "name": "account",
          "type": "address"
        },
        {
          "indexed": true,
          "internalType": "address",
          "name": "sender",
          "type": "address"
        }
      ],
      "name": "RoleRevoked",
      "type": "event"
    },
    {
      "anonymous": false,
      "inputs": [],
      "name": "StopTrade",
      "type": "event"
    },
    {
      "anonymous": false,
      "inputs": [
        {
          "indexed": false,
          "internalType": "uint256",
          "name": "amount",
          "type": "uint256"
        }
      ],
      "name": "Trade",
      "type": "event"
    },
    {
      "inputs": [],
      "name": "ADMIN_ROLE",
      "outputs": [
        {
          "internalType": "bytes32",
          "name": "",
          "type": "bytes32"
        }
      ],
      "stateMutability": "view",
      "type": "function",
      "constant": true
    },
    {
      "inputs": [],
      "name": "DEFAULT_ADMIN_ROLE",
      "outputs": [
        {
          "internalType": "bytes32",
          "name": "",
          "type": "bytes32"
        }
      ],
      "stateMutability": "view",
      "type": "function",
      "constant": true
    },
    {
      "inputs": [],
      "name": "TRANSFER_ROLE",
      "outputs": [
        {
          "internalType": "bytes32",
          "name": "",
          "type": "bytes32"
        }
      ],
      "stateMutability": "view",
      "type": "function",
      "constant": true
    },
    {
      "inputs": [
        {
          "internalType": "bytes32",
          "name": "role",
          "type": "bytes32"
        }
      ],
      "name": "getRoleAdmin",
      "outputs": [
        {
          "internalType": "bytes32",
          "name": "",
          "type": "bytes32"
        }
      ],
      "stateMutability": "view",
      "type": "function",
      "constant": true
    },
    {
      "inputs": [
        {
          "internalType": "bytes32",
          "name": "role",
          "type": "bytes32"
        },
        {
          "internalType": "address",
          "name": "account",
          "type": "address"
        }
      ],
      "name": "grantRole",
      "outputs": [],
      "stateMutability": "nonpayable",
      "type": "function"
    },
    {
      "inputs": [
        {
          "internalType": "bytes32",
          "name": "role",
          "type": "bytes32"
        },
        {
          "internalType": "address",
          "name": "account",
          "type": "address"
        }
      ],
      "name": "hasRole",
      "outputs": [
        {
          "internalType": "bool",
          "name": "",
          "type": "bool"
        }
      ],
      "stateMutability": "view",
      "type": "function",
      "constant": true
    },
    {
      "inputs": [],
      "name": "owner",
      "outputs": [
        {
          "internalType": "address",
          "name": "",
          "type": "address"
        }
      ],
      "stateMutability": "view",
      "type": "function",
      "constant": true
    },
    {
      "inputs": [
        {
          "internalType": "address",
          "name": "",
          "type": "address"
        }
      ],
      "name": "referrals",
      "outputs": [
        {
          "internalType": "bool",
          "name": "",
          "type": "bool"
        }
      ],
      "stateMutability": "view",
      "type": "function",
      "constant": true
    },
    {
      "inputs": [],
      "name": "renounceOwnership",
      "outputs": [],
      "stateMutability": "nonpayable",
      "type": "function"
    },
    {
      "inputs": [
        {
          "internalType": "bytes32",
          "name": "role",
          "type": "bytes32"
        },
        {
          "internalType": "address",
          "name": "account",
          "type": "address"
        }
      ],
      "name": "renounceRole",
      "outputs": [],
      "stateMutability": "nonpayable",
      "type": "function"
    },
    {
      "inputs": [
        {
          "internalType": "bytes32",
          "name": "role",
          "type": "bytes32"
        },
        {
          "internalType": "address",
          "name": "account",
          "type": "address"
        }
      ],
      "name": "revokeRole",
      "outputs": [],
      "stateMutability": "nonpayable",
      "type": "function"
    },
    {
      "inputs": [
        {
          "internalType": "bytes4",
          "name": "interfaceId",
          "type": "bytes4"
        }
      ],
      "name": "supportsInterface",
      "outputs": [
        {
          "internalType": "bool",
          "name": "",
          "type": "bool"
        }
      ],
      "stateMutability": "view",
      "type": "function",
      "constant": true
    },
    {
      "inputs": [
        {
          "internalType": "address",
          "name": "newOwner",
          "type": "address"
        }
      ],
      "name": "transferOwnership",
      "outputs": [],
      "stateMutability": "nonpayable",
      "type": "function"
    },
    {
      "inputs": [
        {
          "internalType": "uint256",
          "name": "_ratio",
          "type": "uint256"
        },
        {
          "internalType": "contract IERC20",
          "name": "_USDT",
          "type": "address"
        },
        {
          "internalType": "contract IERC20",
          "name": "_BitX",
          "type": "address"
        }
      ],
      "name": "__BitXSwap_init",
      "outputs": [],
      "stateMutability": "nonpayable",
      "type": "function"
    },
    {
      "inputs": [
        {
          "internalType": "address",
          "name": "_referral",
          "type": "address"
        }
      ],
      "name": "addReferral",
      "outputs": [],
      "stateMutability": "nonpayable",
      "type": "function"
    },
    {
      "inputs": [
        {
          "internalType": "address",
          "name": "_affliator",
          "type": "address"
        },
        {
          "internalType": "uint256",
          "name": "_amount",
          "type": "uint256"
        }
      ],
      "name": "swapAffiliate",
      "outputs": [
        {
          "internalType": "bool",
          "name": "",
          "type": "bool"
        }
      ],
      "stateMutability": "nonpayable",
      "type": "function"
    },
    {
      "inputs": [
        {
          "internalType": "uint256",
          "name": "_amount",
          "type": "uint256"
        }
      ],
      "name": "swap",
      "outputs": [
        {
          "internalType": "bool",
          "name": "",
          "type": "bool"
        }
      ],
      "stateMutability": "nonpayable",
      "type": "function"
    },
    {
      "inputs": [
        {
          "internalType": "uint256",
          "name": "_amount",
          "type": "uint256"
        }
      ],
      "name": "swapSell",
      "outputs": [
        {
          "internalType": "bool",
          "name": "",
          "type": "bool"
        }
      ],
      "stateMutability": "nonpayable",
      "type": "function"
    },
    {
      "inputs": [
        {
          "internalType": "uint256",
          "name": "_amount",
          "type": "uint256"
        }
      ],
      "name": "depositBitXToken",
      "outputs": [],
      "stateMutability": "nonpayable",
      "type": "function"
    },
    {
      "inputs": [
        {
          "internalType": "uint256",
          "name": "_amount",
          "type": "uint256"
        }
      ],
      "name": "depositUSDTToken",
      "outputs": [],
      "stateMutability": "nonpayable",
      "type": "function"
    },
    {
      "inputs": [],
      "name": "getBitXTokenBalance",
      "outputs": [
        {
          "internalType": "uint256",
          "name": "balance",
          "type": "uint256"
        }
      ],
      "stateMutability": "view",
      "type": "function",
      "constant": true
    },
    {
      "inputs": [],
      "name": "getUSDTTokenBalance",
      "outputs": [
        {
          "internalType": "uint256",
          "name": "balance",
          "type": "uint256"
        }
      ],
      "stateMutability": "view",
      "type": "function",
      "constant": true
    },
    {
      "inputs": [
        {
          "internalType": "contract IERC20",
          "name": "_BitX",
          "type": "address"
        }
      ],
      "name": "withdrawBitX",
      "outputs": [
        {
          "internalType": "bool",
          "name": "",
          "type": "bool"
        }
      ],
      "stateMutability": "nonpayable",
      "type": "function"
    },
    {
      "inputs": [
        {
          "internalType": "contract IERC20",
          "name": "_USDT",
          "type": "address"
        }
      ],
      "name": "withdrawUSDT",
      "outputs": [
        {
          "internalType": "bool",
          "name": "",
          "type": "bool"
        }
      ],
      "stateMutability": "nonpayable",
      "type": "function"
    },
    {
      "inputs": [],
      "name": "stopTrading",
      "outputs": [],
      "stateMutability": "nonpayable",
      "type": "function"
    },
    {
      "inputs": [
        {
          "internalType": "uint256",
          "name": "_ratio",
          "type": "uint256"
        }
      ],
      "name": "changeRatio",
      "outputs": [],
      "stateMutability": "nonpayable",
      "type": "function"
    },
    {
      "inputs": [],
      "name": "getRatio",
      "outputs": [
        {
          "internalType": "uint256",
          "name": "",
          "type": "uint256"
        }
      ],
      "stateMutability": "view",
      "type": "function",
      "constant": true
    },
    {
      "inputs": [
        {
          "internalType": "uint256",
          "name": "_commissionRate",
          "type": "uint256"
        }
      ],
      "name": "changeComission",
      "outputs": [],
      "stateMutability": "nonpayable",
      "type": "function"
    },
    {
      "inputs": [],
      "name": "getComission",
      "outputs": [
        {
          "internalType": "uint256",
          "name": "",
          "type": "uint256"
        }
      ],
      "stateMutability": "view",
      "type": "function",
      "constant": true
    },
    {
      "inputs": [
        {
          "internalType": "address",
          "name": "_to",
          "type": "address"
        },
        {
          "internalType": "uint256",
          "name": "_amount",
          "type": "uint256"
        }
      ],
      "name": "transferReward",
      "outputs": [],
      "stateMutability": "nonpayable",
      "type": "function"
    }
  ],
  "bytecode": "0x608060405234801561001057600080fd5b50611dc5806100206000396000f3fe608060405234801561001057600080fd5b50600436106101da5760003560e01c806391d1485411610104578063d547741f116100a2578063ec1ebd7a11610071578063ec1ebd7a14610400578063f2fde38b14610408578063f6a332531461041b578063f7618dae1461042e57600080fd5b8063d547741f146103bf578063dd6d3ca7146103d2578063e0f50bd8146103da578063e8aca46a146103ed57600080fd5b8063a217fddf116100de578063a217fddf14610389578063ae2f0a6f14610391578063b01ce4fd146103a4578063c711802c146103b757600080fd5b806391d148541461034057806394b918de146103535780639ca423b31461036657600080fd5b806336568abe1161017c578063715018a61161014b578063715018a6146102ee5780637185f163146102f657806375b238fc146102fe5780638da5cb5b1461032557600080fd5b806336568abe146102ad5780634ce8d8a4146102c057806353228882146102d357806359db80f8146102db57600080fd5b806315490ebb116101b857806315490ebb1461022f578063206b60f914610242578063248a9ca3146102775780632f2ff15d1461029a57600080fd5b806301ffc9a7146101df5780630f9c7e811461020757806311b8da001461021c575b600080fd5b6101f26101ed366004611aad565b610441565b60405190151581526020015b60405180910390f35b61021a610215366004611a66565b610478565b005b61021a61022a366004611a66565b610485565b61021a61023d366004611a1b565b61054a565b6102697f8502233096d909befbda0999bb8ea2f3a6be3c138b9fbf003752a4c8bce86f6c81565b6040519081526020016101fe565b610269610285366004611a66565b60009081526097602052604090206001015490565b61021a6102a8366004611a7e565b610600565b61021a6102bb366004611a7e565b61062a565b61021a6102ce366004611aed565b6106ad565b610269610841565b6101f26102e93660046119ff565b6108c3565b61021a610b46565b61021a610b5a565b6102697fa49807205ce4d355092ef5a8a18f56e8913cf4a201fbe287825b095693c2177581565b6033546040516001600160a01b0390911681526020016101fe565b6101f261034e366004611a7e565b610b9a565b6101f2610361366004611a66565b610bc5565b6101f26103743660046119ff565b60ce6020526000908152604090205460ff1681565b610269600081565b6101f261039f3660046119ff565b610e00565b61021a6103b2366004611a66565b610efc565b610269610f38565b61021a6103cd366004611a7e565b610f69565b60cc54610269565b6101f26103e8366004611a1b565b610f8e565b61021a6103fb3660046119ff565b6112e7565b60cb54610269565b61021a6104163660046119ff565b611313565b61021a610429366004611a66565b61138c565b6101f261043c366004611a66565b6113bc565b60006001600160e01b03198216637965db0b60e01b148061047257506301ffc9a760e01b6001600160e01b03198316145b92915050565b61048061156c565b60cc55565b61048d61156c565b60c9546040516323b872dd60e01b81526001600160a01b03909116906323b872dd906104c190339030908690600401611ba3565b602060405180830381600087803b1580156104db57600080fd5b505af11580156104ef573d6000803e3d6000fd5b505050506040513d601f19601f820116820180604052508101906105139190611a46565b506040518181527f79b704a32544f12a677346065e16347b14c63f9babc65b59503eb542b535ae439060200160405180910390a150565b7f8502233096d909befbda0999bb8ea2f3a6be3c138b9fbf003752a4c8bce86f6c610574816115c6565b60c95460405163a9059cbb60e01b81526001600160a01b038581166004830152602482018590529091169063a9059cbb90604401602060405180830381600087803b1580156105c257600080fd5b505af11580156105d6573d6000803e3d6000fd5b505050506040513d601f19601f820116820180604052508101906105fa9190611a46565b50505050565b60008281526097602052604090206001015461061b816115c6565b61062583836115d0565b505050565b6001600160a01b038116331461069f5760405162461bcd60e51b815260206004820152602f60248201527f416363657373436f6e74726f6c3a2063616e206f6e6c792072656e6f756e636560448201526e103937b632b9903337b91039b2b63360891b60648201526084015b60405180910390fd5b6106a98282611656565b5050565b600054610100900460ff16158080156106cd5750600054600160ff909116105b806106e75750303b1580156106e7575060005460ff166001145b61074a5760405162461bcd60e51b815260206004820152602e60248201527f496e697469616c697a61626c653a20636f6e747261637420697320616c72656160448201526d191e481a5b9a5d1a585b1a5e995960921b6064820152608401610696565b6000805460ff19166001179055801561076d576000805461ff0019166101001790555b6107756116bd565b61077d6116ec565b610788600033611713565b6107b27fa49807205ce4d355092ef5a8a18f56e8913cf4a201fbe287825b095693c2177533610600565b60cb84905560c980546001600160a01b038085166001600160a01b03199092169190911790915560ca80546001600160a81b03191691851691909117600160a01b17905580156105fa576000805461ff0019169055604051600181527f7f26b83ff96e1f2b6a682f133852f6798a09c465da95921460cefb38474024989060200160405180910390a150505050565b60c9546040516370a0823160e01b81523060048201526000916001600160a01b0316906370a08231906024015b60206040518083038186803b15801561088657600080fd5b505afa15801561089a573d6000803e3d6000fd5b505050506040513d601f19601f820116820180604052508101906108be9190611ad5565b905090565b60006108cd61156c565b6040516370a0823160e01b81523060048201526000906001600160a01b038416906370a082319060240160206040518083038186803b15801561090f57600080fd5b505afa158015610923573d6000803e3d6000fd5b505050506040513d601f19601f820116820180604052508101906109479190611ad5565b116109865760405162461bcd60e51b815260206004820152600f60248201526e62616c616e6365206973207a65726f60881b6044820152606401610696565b60c9546040516370a0823160e01b815230600482018190526001600160a01b03858116936323b872dd933392909116906370a08231906024015b60206040518083038186803b1580156109d857600080fd5b505afa1580156109ec573d6000803e3d6000fd5b505050506040513d601f19601f82011682018060405250810190610a109190611ad5565b6040518463ffffffff1660e01b8152600401610a2e93929190611ba3565b602060405180830381600087803b158015610a4857600080fd5b505af1158015610a5c573d6000803e3d6000fd5b505050506040513d601f19601f82011682018060405250810190610a809190611a46565b506040516370a0823160e01b81523060048201527f47cee97cb7acd717b3c0aa1435d004cd5b3c8c57d70dbceb4e4458bbd60e39d49083906001600160a01b038216906370a082319060240160206040518083038186803b158015610ae457600080fd5b505afa158015610af8573d6000803e3d6000fd5b505050506040513d601f19601f82011682018060405250810190610b1c9190611ad5565b604080516001600160a01b03909316835260208301919091520160405180910390a1506001919050565b610b4e61156c565b610b58600061171d565b565b610b6261156c565b60ca805460ff60a01b191690556040517f2f52f4f16ece5e1dd274488a8ec73e0d6093a4fc012a01873a0b3283a704917290600090a1565b60009182526097602090815260408084206001600160a01b0393909316845291905290205460ff1690565b60ca54600090600160a01b900460ff161515600114610bf65760405162461bcd60e51b815260040161069690611c7c565b60c9546040516370a0823160e01b815230600482015283916001600160a01b0316906370a082319060240160206040518083038186803b158015610c3957600080fd5b505afa158015610c4d573d6000803e3d6000fd5b505050506040513d601f19601f82011682018060405250810190610c719190611ad5565b11610c8e5760405162461bcd60e51b815260040161069690611bfa565b6000610ca560cb548461176f90919063ffffffff16565b60ca549091506001600160a01b03166323b872dd33610ccc6033546001600160a01b031690565b846040518463ffffffff1660e01b8152600401610ceb93929190611ba3565b602060405180830381600087803b158015610d0557600080fd5b505af1158015610d19573d6000803e3d6000fd5b505050506040513d601f19601f82011682018060405250810190610d3d9190611a46565b5060c95460405163a9059cbb60e01b8152336004820152602481018590526001600160a01b039091169063a9059cbb906044015b602060405180830381600087803b158015610d8b57600080fd5b505af1158015610d9f573d6000803e3d6000fd5b505050506040513d601f19601f82011682018060405250810190610dc39190611a46565b506040518381527f6badf30381ff2dc53789e35cf0a804727de8b0f5a08600e8c78d903a42e7efd19060200160405180910390a150600192915050565b6000610e0a61156c565b6040516370a0823160e01b81523060048201526000906001600160a01b038416906370a082319060240160206040518083038186803b158015610e4c57600080fd5b505afa158015610e60573d6000803e3d6000fd5b505050506040513d601f19601f82011682018060405250810190610e849190611ad5565b11610ec35760405162461bcd60e51b815260206004820152600f60248201526e62616c616e6365206973207a65726f60881b6044820152606401610696565b6040516370a0823160e01b815230600482018190526001600160a01b038416916323b872dd9190339084906370a08231906024016109c0565b610f0461156c565b60ca546040516323b872dd60e01b81526001600160a01b03909116906323b872dd906104c190339030908690600401611ba3565b60ca546040516370a0823160e01b81523060048201526000916001600160a01b0316906370a082319060240161086e565b600082815260976020526040902060010154610f84816115c6565b6106258383611656565b60ca54600090600160a01b900460ff161515600114610fbf5760405162461bcd60e51b815260040161069690611c7c565b6001600160a01b038316600090815260ce602052604090205460ff16151560011461102c5760405162461bcd60e51b815260206004820152601a60248201527f496e76616c696420726566657272616c277320616464726573730000000000006044820152606401610696565b60c9546040516370a0823160e01b815230600482015283916001600160a01b0316906370a082319060240160206040518083038186803b15801561106f57600080fd5b505afa158015611083573d6000803e3d6000fd5b505050506040513d601f19601f820116820180604052508101906110a79190611ad5565b116110c45760405162461bcd60e51b815260040161069690611bfa565b60006110db60cb548461176f90919063ffffffff16565b9050600060648460cc546110ef9190611ceb565b6110f99190611ccb565b60ca546040516323b872dd60e01b81529192506001600160a01b0316906323b872dd9061112e90339089908690600401611ba3565b602060405180830381600087803b15801561114857600080fd5b505af115801561115c573d6000803e3d6000fd5b505050506040513d601f19601f820116820180604052508101906111809190611a46565b5061118b8185611d0a565b60ca549094506001600160a01b03166323b872dd336111b26033546001600160a01b031690565b856040518463ffffffff1660e01b81526004016111d193929190611ba3565b602060405180830381600087803b1580156111eb57600080fd5b505af11580156111ff573d6000803e3d6000fd5b505050506040513d601f19601f820116820180604052508101906112239190611a46565b5060c95460405163a9059cbb60e01b8152336004820152602481018690526001600160a01b039091169063a9059cbb90604401602060405180830381600087803b15801561127057600080fd5b505af1158015611284573d6000803e3d6000fd5b505050506040513d601f19601f820116820180604052508101906112a89190611a46565b506040518481527f6badf30381ff2dc53789e35cf0a804727de8b0f5a08600e8c78d903a42e7efd19060200160405180910390a1506001949350505050565b6112ef61156c565b6001600160a01b0316600090815260ce60205260409020805460ff19166001179055565b61131b61156c565b6001600160a01b0381166113805760405162461bcd60e51b815260206004820152602660248201527f4f776e61626c653a206e6577206f776e657220697320746865207a65726f206160448201526564647265737360d01b6064820152608401610696565b6113898161171d565b50565b7fa49807205ce4d355092ef5a8a18f56e8913cf4a201fbe287825b095693c217756113b6816115c6565b5060cb55565b60ca54600090600160a01b900460ff1615156001146113ed5760405162461bcd60e51b815260040161069690611c7c565b60c9546040516370a0823160e01b815230600482015283916001600160a01b0316906370a082319060240160206040518083038186803b15801561143057600080fd5b505afa158015611444573d6000803e3d6000fd5b505050506040513d601f19601f820116820180604052508101906114689190611ad5565b116114855760405162461bcd60e51b815260040161069690611bfa565b600061149c60cb548461176f90919063ffffffff16565b60c9549091506001600160a01b03166323b872dd336114c36033546001600160a01b031690565b866040518463ffffffff1660e01b81526004016114e293929190611ba3565b602060405180830381600087803b1580156114fc57600080fd5b505af1158015611510573d6000803e3d6000fd5b505050506040513d601f19601f820116820180604052508101906115349190611a46565b5060ca5460405163a9059cbb60e01b8152336004820152602481018390526001600160a01b039091169063a9059cbb90604401610d71565b6033546001600160a01b03163314610b585760405162461bcd60e51b815260206004820181905260248201527f4f776e61626c653a2063616c6c6572206973206e6f7420746865206f776e65726044820152606401610696565b6113898133611782565b6115da8282610b9a565b6106a95760008281526097602090815260408083206001600160a01b03851684529091529020805460ff191660011790556116123390565b6001600160a01b0316816001600160a01b0316837f2f8788117e7eff1d82e926ec794901d17c78024a50270940304540a733656f0d60405160405180910390a45050565b6116608282610b9a565b156106a95760008281526097602090815260408083206001600160a01b0385168085529252808320805460ff1916905551339285917ff6391f5c32d9c69d2a47ea670b442974b53935d1edc7fd64eb21e047a839171b9190a45050565b600054610100900460ff166116e45760405162461bcd60e51b815260040161069690611c31565b610b586117db565b600054610100900460ff16610b585760405162461bcd60e51b815260040161069690611c31565b6106a982826115d0565b603380546001600160a01b038381166001600160a01b0319831681179093556040519116919082907f8be0079c531659141344cd1fd0a4f28419497f9722a3daafe3b4186f6b6457e090600090a35050565b600061177b8284611ceb565b9392505050565b61178c8282610b9a565b6106a9576117998161180b565b6117a483602061181d565b6040516020016117b5929190611b2e565b60408051601f198184030181529082905262461bcd60e51b825261069691600401611bc7565b600054610100900460ff166118025760405162461bcd60e51b815260040161069690611c31565b610b583361171d565b60606104726001600160a01b03831660145b6060600061182c836002611ceb565b611837906002611cb3565b67ffffffffffffffff81111561185d57634e487b7160e01b600052604160045260246000fd5b6040519080825280601f01601f191660200182016040528015611887576020820181803683370190505b509050600360fc1b816000815181106118b057634e487b7160e01b600052603260045260246000fd5b60200101906001600160f81b031916908160001a905350600f60fb1b816001815181106118ed57634e487b7160e01b600052603260045260246000fd5b60200101906001600160f81b031916908160001a9053506000611911846002611ceb565b61191c906001611cb3565b90505b60018111156119b0576f181899199a1a9b1b9c1cb0b131b232b360811b85600f166010811061195e57634e487b7160e01b600052603260045260246000fd5b1a60f81b82828151811061198257634e487b7160e01b600052603260045260246000fd5b60200101906001600160f81b031916908160001a90535060049490941c936119a981611d4d565b905061191f565b50831561177b5760405162461bcd60e51b815260206004820181905260248201527f537472696e67733a20686578206c656e67746820696e73756666696369656e746044820152606401610696565b600060208284031215611a10578081fd5b813561177b81611d7a565b60008060408385031215611a2d578081fd5b8235611a3881611d7a565b946020939093013593505050565b600060208284031215611a57578081fd5b8151801515811461177b578182fd5b600060208284031215611a77578081fd5b5035919050565b60008060408385031215611a90578182fd5b823591506020830135611aa281611d7a565b809150509250929050565b600060208284031215611abe578081fd5b81356001600160e01b03198116811461177b578182fd5b600060208284031215611ae6578081fd5b5051919050565b600080600060608486031215611b01578081fd5b833592506020840135611b1381611d7a565b91506040840135611b2381611d7a565b809150509250925092565b7f416363657373436f6e74726f6c3a206163636f756e7420000000000000000000815260008351611b66816017850160208801611d21565b7001034b99036b4b9b9b4b733903937b6329607d1b6017918401918201528351611b97816028840160208801611d21565b01602801949350505050565b6001600160a01b039384168152919092166020820152604081019190915260600190565b6020815260008251806020840152611be6816040850160208701611d21565b601f01601f19169190910160400192915050565b6020808252601f908201527f496e73756666696369656e7420416d6f756e7420696e20636f6e747261637400604082015260600190565b6020808252602b908201527f496e697469616c697a61626c653a20636f6e7472616374206973206e6f74206960408201526a6e697469616c697a696e6760a81b606082015260800190565b60208082526018908201527f5472616465206973206e6f742073746172746564207965740000000000000000604082015260600190565b60008219821115611cc657611cc6611d64565b500190565b600082611ce657634e487b7160e01b81526012600452602481fd5b500490565b6000816000190483118215151615611d0557611d05611d64565b500290565b600082821015611d1c57611d1c611d64565b500390565b60005b83811015611d3c578181015183820152602001611d24565b838111156105fa5750506000910152565b600081611d5c57611d5c611d64565b506000190190565b634e487b7160e01b600052601160045260246000fd5b6001600160a01b038116811461138957600080fdfea2646970667358221220d983a56698ba67d70292f0e1a9b4d024b572c810c910710bd5381261e4f9b20964736f6c63430008040033",
  "immutableReferences": {},
  "source": "// SPDX-License-Identifier: MIT\npragma solidity 0.8.4;\n\nimport \"@openzeppelin/contracts/token/ERC20/IERC20.sol\";\nimport \"@openzeppelin/contracts-upgradeable/access/OwnableUpgradeable.sol\";\nimport \"@openzeppelin/contracts-upgradeable/access/AccessControlUpgradeable.sol\";\nimport \"@openzeppelin/contracts/utils/math/SafeMath.sol\";\nimport \"./IBitXGoldSwap.sol\";\n\ncontract BitXGoldSwap is\n    OwnableUpgradeable,\n    AccessControlUpgradeable,\n    IBitXGoldSwap\n{\n    using SafeMath for uint256;\n    bytes32 public constant ADMIN_ROLE = keccak256(\"ADMIN_ROLE\");\n    bytes32 public constant TRANSFER_ROLE = keccak256(\"TRANSFER_ROLE\");\n\n    IERC20 BitX;\n    IERC20 USDT;\n    bool initialized;\n    uint256 ratio;\n    uint256 commissionRate;\n    address private _owner;\n    mapping(address => bool) public referrals;\n\n    event Trade(uint256 amount);\n    event AddMoreRewardToken(uint256 amount);\n    event DepositBitx(uint256 amount);\n    event StopTrade();\n    event Claim(IERC20 token, uint256 amount);\n\n    /**\n     * @dev BitXSwap Upgradable initializer\n     * @param _ratio _ratio USDT & BitX ratio\n     */\n\n    function __BitXSwap_init(\n        uint256 _ratio,\n        IERC20 _USDT,\n        IERC20 _BitX\n    ) external initializer {\n        __Ownable_init();\n        __AccessControl_init();\n        _setupRole(DEFAULT_ADMIN_ROLE, _msgSender());\n        grantRole(ADMIN_ROLE, _msgSender());\n        ratio = _ratio;\n        BitX = _BitX;\n        USDT = _USDT;\n        initialized = true;\n    }\n\n    /**\n     * @dev add referral\n     * @param _referral address of referral\n     */\n\n    function addReferral(address _referral) public onlyOwner {\n        referrals[_referral] = true;\n    }\n\n    /**\n     * @dev Swap USDT and BitX\n     * @param _affliator affiliator's address\n     * @param _amount Amount to be transfered in contract\n     */\n\n    function swapAffiliate(address _affliator, uint256 _amount)\n        public\n        returns (bool)\n    {\n        require(initialized == true, \"Trade is not started yet\");\n        require(referrals[_affliator] == true, \"Invalid referral's address\");\n        require(\n            (BitX.balanceOf(address(this)) > _amount),\n            \"Insufficient Amount in contract\"\n        );\n        uint256 rewardamount = _amount.mul(ratio);\n        uint256 usdt_amount = (commissionRate * _amount) / 100;\n        USDT.transferFrom(msg.sender, _affliator, usdt_amount);\n        _amount = _amount - usdt_amount;\n        USDT.transferFrom(msg.sender, owner(), rewardamount);\n        BitX.transfer(msg.sender, _amount);\n        emit Trade(_amount);\n        return true;\n    }\n\n    /**\n     * @dev Swap USDT and BitX\n     * @param _amount Amount to be transfered in contract\n     */\n\n    function swap(uint256 _amount) public returns (bool) {\n        require(initialized == true, \"Trade is not started yet\");\n        require(\n            (BitX.balanceOf(address(this)) > _amount),\n            \"Insufficient Amount in contract\"\n        );\n        uint256 rewardamount = _amount.mul(ratio);\n        USDT.transferFrom(msg.sender, owner(), rewardamount);\n        BitX.transfer(msg.sender, _amount);\n        emit Trade(_amount);\n        return true;\n    }\n\n    /**\n     * @dev Swap BitX and USDT\n     * @param _amount Amount to be transfered in contract\n     */\n\n    function swapSell(uint256 _amount) public returns (bool) {\n        require(initialized == true, \"Trade is not started yet\");\n        require(\n            (BitX.balanceOf(address(this)) > _amount),\n            \"Insufficient Amount in contract\"\n        );\n        uint256 rewardamount = _amount.mul(ratio);\n        BitX.transferFrom(msg.sender, owner(), _amount);\n        USDT.transfer(msg.sender, rewardamount);\n        emit Trade(_amount);\n        return true;\n    }\n\n    /**\n     * @dev transfer bitx tokens to contract\n     * @param _amount amount to be transfered\n     */\n\n    function depositBitXToken(uint256 _amount) public onlyOwner {\n        BitX.transferFrom(msg.sender, address(this), _amount);\n        emit DepositBitx(_amount);\n    }\n\n    /**\n     * @dev transfer USDT tokens to contract\n     * @param _amount amount to be transfered\n     */\n\n    function depositUSDTToken(uint256 _amount) public onlyOwner {\n        USDT.transferFrom(msg.sender, address(this), _amount);\n        emit DepositBitx(_amount);\n    }\n\n    /**\n     * @dev Contract balance of BitX Token\n     */\n\n    function getBitXTokenBalance() public view returns (uint256 balance) {\n        return BitX.balanceOf(address(this));\n    }\n\n    /**\n     * @dev Contract balance of USDT Token\n     */\n\n    function getUSDTTokenBalance() public view returns (uint256 balance) {\n        return USDT.balanceOf(address(this));\n    }\n\n    /**\n     * @dev Withdraw BitX all the tokens from the contract\n     * @param _BitX contract address of BitX Token\n     */\n\n    function withdrawBitX(IERC20 _BitX) public onlyOwner returns (bool) {\n        require(_BitX.balanceOf(address(this)) > 0, \"balance is zero\");\n        _BitX.transferFrom(\n            address(this),\n            msg.sender,\n            _BitX.balanceOf(address(this))\n        );\n        emit Claim(_BitX, _BitX.balanceOf(address(this)));\n        return true;\n    }\n\n    /**\n     * @dev Withdraw USDT all the tokens from the contract\n     * @param _USDT contract address of BitX Token\n     */\n\n    function withdrawUSDT(IERC20 _USDT) public onlyOwner returns (bool) {\n        require(_USDT.balanceOf(address(this)) > 0, \"balance is zero\");\n        _USDT.transferFrom(\n            address(this),\n            msg.sender,\n            BitX.balanceOf(address(this))\n        );\n        emit Claim(_USDT, _USDT.balanceOf(address(this)));\n        return true;\n    }\n\n    /**\n     * @dev Stop trading\n     */\n\n    function stopTrading() public onlyOwner {\n        initialized = false;\n        emit StopTrade();\n    }\n\n    /**\n     * @dev change the ratio\n     * @param _ratio USDT & BitX ratio\n     */\n\n    function changeRatio(uint256 _ratio) public onlyRole(ADMIN_ROLE) {\n        ratio = _ratio;\n    }\n\n    /**\n     * @dev Get the ratio\n     */\n\n    function getRatio() public view returns (uint256) {\n        return ratio;\n    }\n\n    /**\n     * @dev change the comission ratio\n     * @param _commissionRate USDT & BitX ratio\n     */\n\n    function changeComission(uint256 _commissionRate) public onlyOwner {\n        commissionRate = _commissionRate;\n    }\n\n    /**\n     * @dev Get the commission Rate\n     */\n\n    function getComission() public view returns (uint256) {\n        return commissionRate;\n    }\n\n    function transferReward(address _to, uint256 _amount)\n        external\n        override\n        onlyRole(TRANSFER_ROLE)\n    {\n        BitX.transfer(_to, _amount);\n    }\n}\n",
  "sourcePath": "/home/argon/Desktop/Cross-Chain/Contracts/contracts/BxgGoldSwap.sol",
  "compiler": {
    "name": "solc",
    "version": "0.8.4+commit.c7e474f2.Emscripten.clang"
  },
  "schemaVersion": "3.4.11",
  "updatedAt": "2023-01-30T12:45:43.276Z",
  "networkType": "ethereum",
  "devdoc": {
    "kind": "dev",
    "methods": {
      "__BitXSwap_init(uint256,address,address)": {
        "details": "BitXSwap Upgradable initializer",
        "params": {
          "_ratio": "_ratio USDT & BitX ratio"
        }
      },
      "addReferral(address)": {
        "details": "add referral",
        "params": {
          "_referral": "address of referral"
        }
      },
      "changeComission(uint256)": {
        "details": "change the comission ratio",
        "params": {
          "_commissionRate": "USDT & BitX ratio"
        }
      },
      "changeRatio(uint256)": {
        "details": "change the ratio",
        "params": {
          "_ratio": "USDT & BitX ratio"
        }
      },
      "depositBitXToken(uint256)": {
        "details": "transfer bitx tokens to contract",
        "params": {
          "_amount": "amount to be transfered"
        }
      },
      "depositUSDTToken(uint256)": {
        "details": "transfer USDT tokens to contract",
        "params": {
          "_amount": "amount to be transfered"
        }
      },
      "getBitXTokenBalance()": {
        "details": "Contract balance of BitX Token"
      },
      "getComission()": {
        "details": "Get the commission Rate"
      },
      "getRatio()": {
        "details": "Get the ratio"
      },
      "getRoleAdmin(bytes32)": {
        "details": "Returns the admin role that controls `role`. See {grantRole} and {revokeRole}. To change a role's admin, use {_setRoleAdmin}."
      },
      "getUSDTTokenBalance()": {
        "details": "Contract balance of USDT Token"
      },
      "grantRole(bytes32,address)": {
        "details": "Grants `role` to `account`. If `account` had not been already granted `role`, emits a {RoleGranted} event. Requirements: - the caller must have ``role``'s admin role. May emit a {RoleGranted} event."
      },
      "hasRole(bytes32,address)": {
        "details": "Returns `true` if `account` has been granted `role`."
      },
      "owner()": {
        "details": "Returns the address of the current owner."
      },
      "renounceOwnership()": {
        "details": "Leaves the contract without owner. It will not be possible to call `onlyOwner` functions anymore. Can only be called by the current owner. NOTE: Renouncing ownership will leave the contract without an owner, thereby removing any functionality that is only available to the owner."
      },
      "renounceRole(bytes32,address)": {
        "details": "Revokes `role` from the calling account. Roles are often managed via {grantRole} and {revokeRole}: this function's purpose is to provide a mechanism for accounts to lose their privileges if they are compromised (such as when a trusted device is misplaced). If the calling account had been revoked `role`, emits a {RoleRevoked} event. Requirements: - the caller must be `account`. May emit a {RoleRevoked} event."
      },
      "revokeRole(bytes32,address)": {
        "details": "Revokes `role` from `account`. If `account` had been granted `role`, emits a {RoleRevoked} event. Requirements: - the caller must have ``role``'s admin role. May emit a {RoleRevoked} event."
      },
      "stopTrading()": {
        "details": "Stop trading"
      },
      "supportsInterface(bytes4)": {
        "details": "See {IERC165-supportsInterface}."
      },
      "swap(uint256)": {
        "details": "Swap USDT and BitX",
        "params": {
          "_amount": "Amount to be transfered in contract"
        }
      },
      "swapAffiliate(address,uint256)": {
        "details": "Swap USDT and BitX",
        "params": {
          "_affliator": "affiliator's address",
          "_amount": "Amount to be transfered in contract"
        }
      },
      "swapSell(uint256)": {
        "details": "Swap BitX and USDT",
        "params": {
          "_amount": "Amount to be transfered in contract"
        }
      },
      "transferOwnership(address)": {
        "details": "Transfers ownership of the contract to a new account (`newOwner`). Can only be called by the current owner."
      },
      "withdrawBitX(address)": {
        "details": "Withdraw BitX all the tokens from the contract",
        "params": {
          "_BitX": "contract address of BitX Token"
        }
      },
      "withdrawUSDT(address)": {
        "details": "Withdraw USDT all the tokens from the contract",
        "params": {
          "_USDT": "contract address of BitX Token"
        }
      }
    },
    "version": 1
  },
  "userdoc": {
    "kind": "user",
    "methods": {},
    "version": 1
  }
}