{
  "_format": "hh-sol-artifact-1",
  "contractName": "BitXStaking",
  "sourceName": "contracts/Stake.sol",
  "address": "0xe63696E6CdbA20BE2c04909f25A15Fd15b369E59",
  "abi": [
    {
      "inputs": [
        {
          "internalType": "contract IERC20",
          "name": "_bxg",
          "type": "address"
        },
        {
          "internalType": "contract IBitXGoldSwap",
          "name": "_pool",
          "type": "address"
        }
      ],
      "stateMutability": "nonpayable",
      "type": "constructor"
    },
    {
      "anonymous": false,
      "inputs": [
        {
          "indexed": false,
          "internalType": "address",
          "name": "staker",
          "type": "address"
        },
        {
          "indexed": false,
          "internalType": "uint256",
          "name": "amountClaimed",
          "type": "uint256"
        },
        {
          "indexed": false,
          "internalType": "uint256",
          "name": "referralReward1",
          "type": "uint256"
        },
        {
          "indexed": false,
          "internalType": "uint256",
          "name": "referralReward2",
          "type": "uint256"
        },
        {
          "indexed": false,
          "internalType": "uint256",
          "name": "referralReward3",
          "type": "uint256"
        }
      ],
      "name": "Claim",
      "type": "event"
    },
    {
      "anonymous": false,
      "inputs": [
        {
          "indexed": true,
          "internalType": "address",
          "name": "previousOwner",
          "type": "address"
        },
        {
          "indexed": true,
          "internalType": "address",
          "name": "newOwner",
          "type": "address"
        }
      ],
      "name": "OwnershipTransferred",
      "type": "event"
    },
    {
      "anonymous": false,
      "inputs": [
        {
          "indexed": false,
          "internalType": "address",
          "name": "staker",
          "type": "address"
        },
        {
          "indexed": false,
          "internalType": "uint256",
          "name": "amountStaked",
          "type": "uint256"
        }
      ],
      "name": "Stake",
      "type": "event"
    },
    {
      "anonymous": false,
      "inputs": [
        {
          "indexed": false,
          "internalType": "address",
          "name": "staker",
          "type": "address"
        },
        {
          "indexed": false,
          "internalType": "uint256",
          "name": "amountUnstaked",
          "type": "uint256"
        }
      ],
      "name": "Unstake",
      "type": "event"
    },
    {
      "inputs": [
        {
          "internalType": "address",
          "name": "",
          "type": "address"
        }
      ],
      "name": "StakedReferrals",
      "outputs": [
        {
          "internalType": "address",
          "name": "firstReferral",
          "type": "address"
        },
        {
          "internalType": "address",
          "name": "secondReferral",
          "type": "address"
        },
        {
          "internalType": "address",
          "name": "thirdReferral",
          "type": "address"
        }
      ],
      "stateMutability": "view",
      "type": "function"
    },
    {
      "inputs": [
        {
          "internalType": "address",
          "name": "",
          "type": "address"
        }
      ],
      "name": "StakedTokens",
      "outputs": [
        {
          "internalType": "address",
          "name": "staker",
          "type": "address"
        },
        {
          "internalType": "uint256",
          "name": "startingTime",
          "type": "uint256"
        },
        {
          "internalType": "uint256",
          "name": "rewardsEarned",
          "type": "uint256"
        },
        {
          "internalType": "uint256",
          "name": "amountStaked",
          "type": "uint256"
        }
      ],
      "stateMutability": "view",
      "type": "function"
    },
    {
      "inputs": [
        {
          "internalType": "address",
          "name": "_referral",
          "type": "address"
        },
        {
          "internalType": "address",
          "name": "staker",
          "type": "address"
        }
      ],
      "name": "addReferral",
      "outputs": [],
      "stateMutability": "nonpayable",
      "type": "function"
    },
    {
      "inputs": [],
      "name": "bxg",
      "outputs": [
        {
          "internalType": "contract IERC20",
          "name": "",
          "type": "address"
        }
      ],
      "stateMutability": "view",
      "type": "function"
    },
    {
      "inputs": [
        {
          "internalType": "uint256",
          "name": "_amount",
          "type": "uint256"
        },
        {
          "internalType": "uint256",
          "name": "_timeStaked",
          "type": "uint256"
        }
      ],
      "name": "calculateRewards",
      "outputs": [
        {
          "internalType": "uint256",
          "name": "",
          "type": "uint256"
        }
      ],
      "stateMutability": "view",
      "type": "function"
    },
    {
      "inputs": [],
      "name": "owner",
      "outputs": [
        {
          "internalType": "address",
          "name": "",
          "type": "address"
        }
      ],
      "stateMutability": "view",
      "type": "function"
    },
    {
      "inputs": [],
      "name": "renounceOwnership",
      "outputs": [],
      "stateMutability": "nonpayable",
      "type": "function"
    },
    {
      "inputs": [
        {
          "internalType": "uint256",
          "name": "_amount",
          "type": "uint256"
        }
      ],
      "name": "stake",
      "outputs": [],
      "stateMutability": "nonpayable",
      "type": "function"
    },
    {
      "inputs": [
        {
          "internalType": "address",
          "name": "newOwner",
          "type": "address"
        }
      ],
      "name": "transferOwnership",
      "outputs": [],
      "stateMutability": "nonpayable",
      "type": "function"
    },
    {
      "inputs": [
        {
          "internalType": "uint256",
          "name": "_amount",
          "type": "uint256"
        }
      ],
      "name": "unStake",
      "outputs": [],
      "stateMutability": "nonpayable",
      "type": "function"
    },
    {
      "inputs": [
        {
          "internalType": "uint256",
          "name": "_amount",
          "type": "uint256"
        }
      ],
      "name": "withdraw",
      "outputs": [],
      "stateMutability": "nonpayable",
      "type": "function"
    }
  ],
  "bytecode": "0x60a0604052606460045562278d0060055562015180600655600360075534801561002857600080fd5b506040516111eb3803806111eb833981016040819052610047916100de565b60016000556100553361008c565b60609190911b6001600160601b031916608052600280546001600160a01b0319166001600160a01b0390921691909117905561012f565b600180546001600160a01b038381166001600160a01b0319831681179093556040519116919082907f8be0079c531659141344cd1fd0a4f28419497f9722a3daafe3b4186f6b6457e090600090a35050565b600080604083850312156100f0578182fd5b82516100fb81610117565b602084015190925061010c81610117565b809150509250929050565b6001600160a01b038116811461012c57600080fd5b50565b60805160601c61109061015b600039600081816101ba01528181610b380152610c7701526110906000f3fe608060405234801561001057600080fd5b50600436106100a95760003560e01c8063715018a611610071578063715018a6146101755780638da5cb5b1461017d578063a694fc3a146101a2578063c1931d20146101b5578063d3da6ed5146101dc578063f2fde38b1461024557600080fd5b80630b5c3f87146100ae5780632e1a7d4d146100c357806332f23b4c146100d657806348a88706146101415780635d3eea9114610162575b600080fd5b6100c16100bc366004610f4a565b610258565b005b6100c16100d1366004610f9c565b61035f565b6101126100e4366004610f29565b6008602052600090815260409020805460018201546002909201546001600160a01b03918216928216911683565b604080516001600160a01b03948516815292841660208401529216918101919091526060015b60405180910390f35b61015461014f366004610fb4565b6109fb565b604051908152602001610138565b6100c1610170366004610f9c565b610a3f565b6100c1610c39565b6001546001600160a01b03165b6040516001600160a01b039091168152602001610138565b6100c16101b0366004610f9c565b610c4d565b61018a7f000000000000000000000000000000000000000000000000000000000000000081565b61021b6101ea366004610f29565b60096020526000908152604090208054600182015460028301546003909301546001600160a01b0390921692909184565b604080516001600160a01b0390951685526020850193909352918301526060820152608001610138565b6100c1610253366004610f29565b610d91565b610260610e07565b6001600160a01b03818116600090815260086020526040902054166102b1576001600160a01b03818116600090815260086020526040902080546001600160a01b0319169184169190911790555050565b6001600160a01b0381811660009081526008602052604090206001015416610308576001600160a01b03818116600090815260086020526040902060010180546001600160a01b0319169184169190911790555050565b6001600160a01b03818116600090815260086020526040902060020154166100a9576001600160a01b03818116600090815260086020526040902060020180546001600160a01b0319169184169190911790555050565b610367610e61565b336000908152600960205260409020600301548111156103da5760405162461bcd60e51b8152602060048201526024808201527f416d6f756e74206265696e67207769746864726177656e20697320746f6f206d6044820152637563682160e01b60648201526084015b60405180910390fd5b336000908152600960205260408120600101546103f7904261102d565b905060045481101561045a5760405162461bcd60e51b815260206004820152602660248201527f4974206861736e2774206265656e206f6e65206d6f6e74682073696e6365207360448201526574616b696e6760d01b60648201526084016103d1565b600061046683836109fb565b3360009081526008602052604081205491925090819081906001600160a01b0316158015906104ae5750336000908152600860205260409020600101546001600160a01b0316155b80156104d35750336000908152600860205260409020600201546001600160a01b0316155b1561056c5760646104e587600161100e565b6104ef9190610fee565b60025433600090815260086020526040908190205490516315490ebb60e01b81529295506001600160a01b03918216926315490ebb926105359216908790600401610fd5565b600060405180830381600087803b15801561054f57600080fd5b505af1158015610563573d6000803e3d6000fd5b50505050610935565b336000908152600860205260409020546001600160a01b0316158015906105ad5750336000908152600860205260409020600101546001600160a01b031615155b80156105d25750336000908152600860205260409020600201546001600160a01b0316155b156106e55768056bc75e2d631000006105f3876709b6e64a8ec6000061100e565b6105fd9190610fee565b925068056bc75e2d6310000061061b87670429d069189e000061100e565b6106259190610fee565b60025433600090815260086020526040908190205490516315490ebb60e01b81529294506001600160a01b03918216926315490ebb9261066b9216908790600401610fd5565b600060405180830381600087803b15801561068557600080fd5b505af1158015610699573d6000803e3d6000fd5b505060025433600090815260086020526040908190206001015490516315490ebb60e01b81526001600160a01b0392831694506315490ebb935061053592909116908690600401610fd5565b336000908152600860205260409020546001600160a01b0316158015906107265750336000908152600860205260409020600101546001600160a01b031615155b801561074c5750336000908152600860205260409020600201546001600160a01b031615155b156109355768056bc75e2d6310000061076d876709b6e64a8ec6000061100e565b6107779190610fee565b925068056bc75e2d63100000610795876702c68af0bb14000061100e565b61079f9190610fee565b915068056bc75e2d631000006107bd8767016345785d8a000061100e565b6107c79190610fee565b60025433600090815260086020526040908190205490516315490ebb60e01b81529293506001600160a01b03918216926315490ebb9261080d9216908790600401610fd5565b600060405180830381600087803b15801561082757600080fd5b505af115801561083b573d6000803e3d6000fd5b505060025433600090815260086020526040908190206001015490516315490ebb60e01b81526001600160a01b0392831694506315490ebb935061088792909116908690600401610fd5565b600060405180830381600087803b1580156108a157600080fd5b505af11580156108b5573d6000803e3d6000fd5b50506002805433600090815260086020526040908190209092015491516315490ebb60e01b81526001600160a01b0391821694506315490ebb935061090292909116908590600401610fd5565b600060405180830381600087803b15801561091c57600080fd5b505af1158015610930573d6000803e3d6000fd5b505050505b6002546040516315490ebb60e01b81526001600160a01b03909116906315490ebb906109679033908890600401610fd5565b600060405180830381600087803b15801561098157600080fd5b505af1158015610995573d6000803e3d6000fd5b505060408051338152602081018a905290810186905260608101859052608081018490527f68e1caf97c4c29c1ac46024e9590f80b7a1f690d393703879cf66eea4e1e8421925060a001905060405180910390a150505050506109f86001600055565b50565b60008060045483610a0c9190610fee565b9050600081600754610a1e919061100e565b90506064610a2c828761100e565b610a369190610fee565b95945050505050565b610a47610e61565b60045433600090815260096020526040902060010154610a67904261102d565b10610ab45760405162461bcd60e51b815260206004820152601f60248201527f596f7572207265776172642069732072656164792c20636c61696d206974210060448201526064016103d1565b33600090815260096020526040902060030154811115610b215760405162461bcd60e51b815260206004820152602260248201527f416d6f756e74206265696e6720756e7374616b656420697320746f6f206d7563604482015261682160f01b60648201526084016103d1565b60405163a9059cbb60e01b81526001600160a01b037f0000000000000000000000000000000000000000000000000000000000000000169063a9059cbb90610b6f9033908590600401610fd5565b602060405180830381600087803b158015610b8957600080fd5b505af1158015610b9d573d6000803e3d6000fd5b505050506040513d601f19601f82011682018060405250810190610bc19190610f7c565b5033600090815260096020526040902060030154610be090829061102d565b33600081815260096020526040908190206003019290925590517f85082129d87b2fe11527cb1b3b7a520aeb5aa6913f88a3d8757fe40d1db02fdd91610c27918490610fd5565b60405180910390a16109f86001600055565b610c41610e07565b610c4b6000610ebb565b565b610c55610e61565b6040516323b872dd60e01b8152336004820152306024820152604481018290527f00000000000000000000000000000000000000000000000000000000000000006001600160a01b0316906323b872dd90606401602060405180830381600087803b158015610cc357600080fd5b505af1158015610cd7573d6000803e3d6000fd5b505050506040513d601f19601f82011682018060405250810190610cfb9190610f7c565b506040805160808101825233808252426020808401918252600084860181815260608601888152858352600990935290869020945185546001600160a01b0319166001600160a01b0390911617855591516001850155905160028401555160039092019190915590517febedb8b3c678666e7f36970bc8f57abf6d8fa2e828c0da91ea5b75bf68ed101a91610c27918490610fd5565b610d99610e07565b6001600160a01b038116610dfe5760405162461bcd60e51b815260206004820152602660248201527f4f776e61626c653a206e6577206f776e657220697320746865207a65726f206160448201526564647265737360d01b60648201526084016103d1565b6109f881610ebb565b6001546001600160a01b03163314610c4b5760405162461bcd60e51b815260206004820181905260248201527f4f776e61626c653a2063616c6c6572206973206e6f7420746865206f776e657260448201526064016103d1565b60026000541415610eb45760405162461bcd60e51b815260206004820152601f60248201527f5265656e7472616e637947756172643a207265656e7472616e742063616c6c0060448201526064016103d1565b6002600055565b600180546001600160a01b038381166001600160a01b0319831681179093556040519116919082907f8be0079c531659141344cd1fd0a4f28419497f9722a3daafe3b4186f6b6457e090600090a35050565b80356001600160a01b0381168114610f2457600080fd5b919050565b600060208284031215610f3a578081fd5b610f4382610f0d565b9392505050565b60008060408385031215610f5c578081fd5b610f6583610f0d565b9150610f7360208401610f0d565b90509250929050565b600060208284031215610f8d578081fd5b81518015158114610f43578182fd5b600060208284031215610fad578081fd5b5035919050565b60008060408385031215610fc6578182fd5b50508035926020909101359150565b6001600160a01b03929092168252602082015260400190565b60008261100957634e487b7160e01b81526012600452602481fd5b500490565b600081600019048311821515161561102857611028611044565b500290565b60008282101561103f5761103f611044565b500390565b634e487b7160e01b600052601160045260246000fdfea264697066735822122082fb283d8bcc0525ff3b10bda4e4c49bd160a057cb7a76e50d51112a10b92e2e64736f6c63430008040033",
  "linkReferences": {},
  "deployedLinkReferences": {}
}